{
  "contractName": "ControlledByServiceProvider",
  "abi": [
    {
      "constant": true,
      "inputs": [
        {
          "name": "",
          "type": "uint256"
        }
      ],
      "name": "serviceProviders",
      "outputs": [
        {
          "name": "",
          "type": "address"
        }
      ],
      "payable": false,
      "stateMutability": "view",
      "type": "function"
    },
    {
      "constant": true,
      "inputs": [
        {
          "name": "",
          "type": "address"
        }
      ],
      "name": "isServiceProvider",
      "outputs": [
        {
          "name": "",
          "type": "bool"
        }
      ],
      "payable": false,
      "stateMutability": "view",
      "type": "function"
    },
    {
      "constant": false,
      "inputs": [],
      "name": "renounceOwnership",
      "outputs": [],
      "payable": false,
      "stateMutability": "nonpayable",
      "type": "function"
    },
    {
      "constant": true,
      "inputs": [],
      "name": "owner",
      "outputs": [
        {
          "name": "",
          "type": "address"
        }
      ],
      "payable": false,
      "stateMutability": "view",
      "type": "function"
    },
    {
      "constant": false,
      "inputs": [
        {
          "name": "_newOwner",
          "type": "address"
        }
      ],
      "name": "transferOwnership",
      "outputs": [],
      "payable": false,
      "stateMutability": "nonpayable",
      "type": "function"
    },
    {
      "inputs": [],
      "payable": false,
      "stateMutability": "nonpayable",
      "type": "constructor"
    },
    {
      "anonymous": false,
      "inputs": [
        {
          "indexed": true,
          "name": "newServiceProvider",
          "type": "address"
        }
      ],
      "name": "AddedServiceProvider",
      "type": "event"
    },
    {
      "anonymous": false,
      "inputs": [
        {
          "indexed": true,
          "name": "previousOwner",
          "type": "address"
        }
      ],
      "name": "OwnershipRenounced",
      "type": "event"
    },
    {
      "anonymous": false,
      "inputs": [
        {
          "indexed": true,
          "name": "previousOwner",
          "type": "address"
        },
        {
          "indexed": true,
          "name": "newOwner",
          "type": "address"
        }
      ],
      "name": "OwnershipTransferred",
      "type": "event"
    },
    {
      "constant": false,
      "inputs": [
        {
          "name": "_newServiceProvider",
          "type": "address"
        }
      ],
      "name": "addServiceProvider",
      "outputs": [],
      "payable": false,
      "stateMutability": "nonpayable",
      "type": "function"
    }
  ],
  "bytecode": "0x608060405234801561001057600080fd5b5060008054600160a060020a03199081163390811783556001805480820182557fb10e2d527612073b26eecdfd717e6a320cf44b4afac2b0732d9fcbe2b7fa0cf60180549093168217909255825260026020526040909120805460ff1916909117905561039c806100826000396000f3006080604052600436106100775763ffffffff7c0100000000000000000000000000000000000000000000000000000000600035041663075d7a6f811461007c5780630a02dcc71461009f5780631dee28f7146100d3578063715018a6146101085780638da5cb5b1461011d578063f2fde38b14610132575b600080fd5b34801561008857600080fd5b5061009d600160a060020a0360043516610153565b005b3480156100ab57600080fd5b506100b7600435610218565b60408051600160a060020a039092168252519081900360200190f35b3480156100df57600080fd5b506100f4600160a060020a0360043516610240565b604080519115158252519081900360200190f35b34801561011457600080fd5b5061009d610255565b34801561012957600080fd5b506100b76102c1565b34801561013e57600080fd5b5061009d600160a060020a03600435166102d0565b600054600160a060020a0316331461016a57600080fd5b600160a060020a038116151561017f57600080fd5b6001805480820182557fb10e2d527612073b26eecdfd717e6a320cf44b4afac2b0732d9fcbe2b7fa0cf601805473ffffffffffffffffffffffffffffffffffffffff1916600160a060020a038416908117909155600081815260026020526040808220805460ff1916909417909355915190917f9c8a52be6758dedc8e73457a4602f0a20b1e249da52ad8e6714bd710970f3bbf91a250565b600180548290811061022657fe5b600091825260209091200154600160a060020a0316905081565b60026020526000908152604090205460ff1681565b600054600160a060020a0316331461026c57600080fd5b60008054604051600160a060020a03909116917ff8df31144d9c2f0f6b59d69b8b98abd5459d07f2742c4df920b25aae33c6482091a26000805473ffffffffffffffffffffffffffffffffffffffff19169055565b600054600160a060020a031681565b600054600160a060020a031633146102e757600080fd5b6102f0816102f3565b50565b600160a060020a038116151561030857600080fd5b60008054604051600160a060020a03808516939216917f8be0079c531659141344cd1fd0a4f28419497f9722a3daafe3b4186f6b6457e091a36000805473ffffffffffffffffffffffffffffffffffffffff1916600160a060020a03929092169190911790555600a165627a7a72305820c4d407fcaa93578e7dcfe68d04cec53d5a4f71edc66cfcbfe486681ff4cd7f670029",
  "source": "pragma solidity ^0.4.24;\n\n// File: openzeppelin-solidity/contracts/math/SafeMath.sol\n\n/**\n * @title SafeMath\n * @dev Math operations with safety checks that throw on error\n */\nlibrary SafeMath {\n\n  /**\n  * @dev Multiplies two numbers, throws on overflow.\n  */\n  function mul(uint256 a, uint256 b) internal pure returns (uint256 c) {\n    // Gas optimization: this is cheaper than asserting 'a' not being zero, but the\n    // benefit is lost if 'b' is also tested.\n    // See: https://github.com/OpenZeppelin/openzeppelin-solidity/pull/522\n    if (a == 0) {\n      return 0;\n    }\n\n    c = a * b;\n    assert(c / a == b);\n    return c;\n  }\n\n  /**\n  * @dev Integer division of two numbers, truncating the quotient.\n  */\n  function div(uint256 a, uint256 b) internal pure returns (uint256) {\n    // assert(b > 0); // Solidity automatically throws when dividing by 0\n    // uint256 c = a / b;\n    // assert(a == b * c + a % b); // There is no case in which this doesn't hold\n    return a / b;\n  }\n\n  /**\n  * @dev Subtracts two numbers, throws on overflow (i.e. if subtrahend is greater than minuend).\n  */\n  function sub(uint256 a, uint256 b) internal pure returns (uint256) {\n    assert(b <= a);\n    return a - b;\n  }\n\n  /**\n  * @dev Adds two numbers, throws on overflow.\n  */\n  function add(uint256 a, uint256 b) internal pure returns (uint256 c) {\n    c = a + b;\n    assert(c >= a);\n    return c;\n  }\n}\n\n// File: openzeppelin-solidity/contracts/token/ERC20/BasicToken.sol\n\n/**\n * @title Basic token\n * @dev Basic version of StandardToken, with no allowances.\n */\ncontract BasicToken {\n  using SafeMath for uint256;\n\n  mapping(address => uint256) balances;\n\n  uint256 totalSupply_;\n\n  /**\n  * @dev Total number of tokens in existence\n  */\n  function totalSupply() public view returns (uint256) {\n    return totalSupply_;\n  }\n\n\n  /**\n  * @dev Gets the balance of the specified address.\n  * @param _owner The address to query the the balance of.\n  * @return An uint256 representing the amount owned by the passed address.\n  */\n  function balanceOf(address _owner) public view returns (uint256) {\n    return balances[_owner];\n  }\n\n}\n\n// File: openzeppelin-solidity/contracts/ownership/Ownable.sol\n\n/**\n * @title Ownable\n * @dev The Ownable contract has an owner address, and provides basic authorization control\n * functions, this simplifies the implementation of \"user permissions\".\n */\ncontract Ownable {\n  address public owner;\n\n\n  event OwnershipRenounced(address indexed previousOwner);\n  event OwnershipTransferred(\n    address indexed previousOwner,\n    address indexed newOwner\n  );\n\n\n  /**\n   * @dev The Ownable constructor sets the original `owner` of the contract to the sender\n   * account.\n   */\n  constructor() public {\n    owner = msg.sender;\n  }\n\n  /**\n   * @dev Throws if called by any account other than the owner.\n   */\n  modifier onlyOwner() {\n    require(msg.sender == owner);\n    _;\n  }\n\n  /**\n   * @dev Allows the current owner to relinquish control of the contract.\n   * @notice Renouncing to ownership will leave the contract without an owner.\n   * It will not be possible to call the functions with the `onlyOwner`\n   * modifier anymore.\n   */\n  function renounceOwnership() public onlyOwner {\n    emit OwnershipRenounced(owner);\n    owner = address(0);\n  }\n\n  /**\n   * @dev Allows the current owner to transfer control of the contract to a newOwner.\n   * @param _newOwner The address to transfer ownership to.\n   */\n  function transferOwnership(address _newOwner) public onlyOwner {\n    _transferOwnership(_newOwner);\n  }\n\n  /**\n   * @dev Transfers control of the contract to a newOwner.\n   * @param _newOwner The address to transfer ownership to.\n   */\n  function _transferOwnership(address _newOwner) internal {\n    require(_newOwner != address(0));\n    emit OwnershipTransferred(owner, _newOwner);\n    owner = _newOwner;\n  }\n}\n\ncontract ControlledByServiceProvider is Ownable {\n  address[] public serviceProviders;\n  mapping(address => bool) public isServiceProvider;\n\n  event AddedServiceProvider(address indexed newServiceProvider);\n\n  constructor() public {\n    serviceProviders.push(msg.sender);\n    isServiceProvider[msg.sender] = true;\n  }\n\n  modifier onlyServiceProvider() {\n    require(isServiceProvider[msg.sender]);\n    _;\n  }\n\n  function addServiceProvider(address _newServiceProvider) onlyOwner external {\n    require(_newServiceProvider != address(0));\n    serviceProviders.push(_newServiceProvider);\n    isServiceProvider[_newServiceProvider] = true;\n    emit AddedServiceProvider(_newServiceProvider);\n  }\n}\n// File: openzeppelin-solidity/contracts/token/ERC20/BurnableToken.sol\n\n/**\n * @title Burnable Token\n * @dev Token that can be irreversibly burned (destroyed).\n */\ncontract BurnableToken is BasicToken, ControlledByServiceProvider {\n\n  event Burn(address indexed burner, uint256 value);\n\n  /**\n   * @dev Burns a specific amount of tokens.\n   * @param _value The amount of token to be burned.\n   */\n  function burn(address _address,  uint256 _value) onlyServiceProvider() public {\n    _burn(_address, _value);\n  }\n\n  function _burn(address _who, uint256 _value) internal {\n    require(_value <= balances[_who]);\n    // no need to require value <= totalSupply, since that would imply the\n    // sender's balance is greater than the totalSupply, which *should* be an assertion failure\n\n    balances[_who] = balances[_who].sub(_value);\n    totalSupply_ = totalSupply_.sub(_value);\n    emit Burn(_who, _value);\n  }\n}\n\n// File: openzeppelin-solidity/contracts/token/ERC20/MintableToken.sol\n\ncontract MintableToken is BasicToken {\n  event Mint(address indexed to, uint256 amount);\n\n  /**\n   * @dev Function to mint tokens\n   * @param _to The address that will receive the minted tokens.\n   * @param _amount The amount of tokens to mint.\n   * @return A boolean that indicates if the operation was successful.\n   */\n  function mint(\n    address _to,\n    uint256 _amount\n  )\n    public\n    returns (bool)\n  {\n    totalSupply_ = totalSupply_.add(_amount);\n    balances[_to] = balances[_to].add(_amount);\n    emit Mint(_to, _amount);\n    return true;\n  }\n}\n\n// File: contracts/DQNPoint.sol\n\ncontract DQNPoint is MintableToken, BurnableToken {\n    string public name;\n    string public symbol;\n    uint8 public decimals;\n\n    constructor(string  _name, string _symbol, uint8 _decimals) public {\n        name = _name;\n        symbol = _symbol;\n        decimals = _decimals;\n    }\n\n    function mint(\n        address _to,\n        uint256 _amount\n    ) onlyServiceProvider\n        public\n        returns (bool) \n    {\n      super.mint(_to, _amount);\n    }\n}\n",
  "sourcePath": "/Users/seita/ethereum-hackathon/DQNPoint/contracts/DQNPoint.sol",
  "compiler": {
    "name": "solc",
    "version": "0.4.24+commit.e67f0147.Emscripten.clang"
  },
  "schemaVersion": "2.0.1",
  "updatedAt": "2018-07-21T07:34:02.919Z"
}